{
  "_format": "hh-sol-artifact-1",
  "contractName": "Decentratwitter",
  "sourceName": "contracts/Decentratwitter.sol",
  "abi": [
    {
      "inputs": [],
      "stateMutability": "nonpayable",
      "type": "constructor"
    },
    {
      "anonymous": false,
      "inputs": [
        {
          "indexed": true,
          "internalType": "address",
          "name": "owner",
          "type": "address"
        },
        {
          "indexed": true,
          "internalType": "address",
          "name": "approved",
          "type": "address"
        },
        {
          "indexed": true,
          "internalType": "uint256",
          "name": "tokenId",
          "type": "uint256"
        }
      ],
      "name": "Approval",
      "type": "event"
    },
    {
      "anonymous": false,
      "inputs": [
        {
          "indexed": true,
          "internalType": "address",
          "name": "owner",
          "type": "address"
        },
        {
          "indexed": true,
          "internalType": "address",
          "name": "operator",
          "type": "address"
        },
        {
          "indexed": false,
          "internalType": "bool",
          "name": "approved",
          "type": "bool"
        }
      ],
      "name": "ApprovalForAll",
      "type": "event"
    },
    {
      "anonymous": false,
      "inputs": [
        {
          "indexed": false,
          "internalType": "uint256",
          "name": "id",
          "type": "uint256"
        },
        {
          "indexed": false,
          "internalType": "string",
          "name": "hash",
          "type": "string"
        },
        {
          "indexed": false,
          "internalType": "uint256",
          "name": "tipAmount",
          "type": "uint256"
        },
        {
          "indexed": false,
          "internalType": "address payable",
          "name": "author",
          "type": "address"
        }
      ],
      "name": "PostCreated",
      "type": "event"
    },
    {
      "anonymous": false,
      "inputs": [
        {
          "indexed": false,
          "internalType": "uint256",
          "name": "id",
          "type": "uint256"
        },
        {
          "indexed": false,
          "internalType": "string",
          "name": "hash",
          "type": "string"
        },
        {
          "indexed": false,
          "internalType": "uint256",
          "name": "tipAmount",
          "type": "uint256"
        },
        {
          "indexed": false,
          "internalType": "address payable",
          "name": "author",
          "type": "address"
        }
      ],
      "name": "PostTipped",
      "type": "event"
    },
    {
      "anonymous": false,
      "inputs": [
        {
          "indexed": true,
          "internalType": "address",
          "name": "from",
          "type": "address"
        },
        {
          "indexed": true,
          "internalType": "address",
          "name": "to",
          "type": "address"
        },
        {
          "indexed": true,
          "internalType": "uint256",
          "name": "tokenId",
          "type": "uint256"
        }
      ],
      "name": "Transfer",
      "type": "event"
    },
    {
      "inputs": [
        {
          "internalType": "address",
          "name": "to",
          "type": "address"
        },
        {
          "internalType": "uint256",
          "name": "tokenId",
          "type": "uint256"
        }
      ],
      "name": "approve",
      "outputs": [],
      "stateMutability": "nonpayable",
      "type": "function"
    },
    {
      "inputs": [
        {
          "internalType": "address",
          "name": "owner",
          "type": "address"
        }
      ],
      "name": "balanceOf",
      "outputs": [
        {
          "internalType": "uint256",
          "name": "",
          "type": "uint256"
        }
      ],
      "stateMutability": "view",
      "type": "function"
    },
    {
      "inputs": [],
      "name": "getAllPosts",
      "outputs": [
        {
          "components": [
            {
              "internalType": "uint256",
              "name": "id",
              "type": "uint256"
            },
            {
              "internalType": "string",
              "name": "hash",
              "type": "string"
            },
            {
              "internalType": "uint256",
              "name": "tipAmount",
              "type": "uint256"
            },
            {
              "internalType": "address payable",
              "name": "author",
              "type": "address"
            }
          ],
          "internalType": "struct Decentratwitter.Post[]",
          "name": "_posts",
          "type": "tuple[]"
        }
      ],
      "stateMutability": "view",
      "type": "function"
    },
    {
      "inputs": [
        {
          "internalType": "uint256",
          "name": "tokenId",
          "type": "uint256"
        }
      ],
      "name": "getApproved",
      "outputs": [
        {
          "internalType": "address",
          "name": "",
          "type": "address"
        }
      ],
      "stateMutability": "view",
      "type": "function"
    },
    {
      "inputs": [],
      "name": "getMyNfts",
      "outputs": [
        {
          "internalType": "uint256[]",
          "name": "_ids",
          "type": "uint256[]"
        }
      ],
      "stateMutability": "view",
      "type": "function"
    },
    {
      "inputs": [
        {
          "internalType": "address",
          "name": "owner",
          "type": "address"
        },
        {
          "internalType": "address",
          "name": "operator",
          "type": "address"
        }
      ],
      "name": "isApprovedForAll",
      "outputs": [
        {
          "internalType": "bool",
          "name": "",
          "type": "bool"
        }
      ],
      "stateMutability": "view",
      "type": "function"
    },
    {
      "inputs": [
        {
          "internalType": "string",
          "name": "_tokenURI",
          "type": "string"
        }
      ],
      "name": "mint",
      "outputs": [
        {
          "internalType": "uint256",
          "name": "",
          "type": "uint256"
        }
      ],
      "stateMutability": "nonpayable",
      "type": "function"
    },
    {
      "inputs": [],
      "name": "name",
      "outputs": [
        {
          "internalType": "string",
          "name": "",
          "type": "string"
        }
      ],
      "stateMutability": "view",
      "type": "function"
    },
    {
      "inputs": [
        {
          "internalType": "uint256",
          "name": "tokenId",
          "type": "uint256"
        }
      ],
      "name": "ownerOf",
      "outputs": [
        {
          "internalType": "address",
          "name": "",
          "type": "address"
        }
      ],
      "stateMutability": "view",
      "type": "function"
    },
    {
      "inputs": [],
      "name": "postCount",
      "outputs": [
        {
          "internalType": "uint256",
          "name": "",
          "type": "uint256"
        }
      ],
      "stateMutability": "view",
      "type": "function"
    },
    {
      "inputs": [
        {
          "internalType": "uint256",
          "name": "",
          "type": "uint256"
        }
      ],
      "name": "posts",
      "outputs": [
        {
          "internalType": "uint256",
          "name": "id",
          "type": "uint256"
        },
        {
          "internalType": "string",
          "name": "hash",
          "type": "string"
        },
        {
          "internalType": "uint256",
          "name": "tipAmount",
          "type": "uint256"
        },
        {
          "internalType": "address payable",
          "name": "author",
          "type": "address"
        }
      ],
      "stateMutability": "view",
      "type": "function"
    },
    {
      "inputs": [
        {
          "internalType": "address",
          "name": "",
          "type": "address"
        }
      ],
      "name": "profiles",
      "outputs": [
        {
          "internalType": "uint256",
          "name": "",
          "type": "uint256"
        }
      ],
      "stateMutability": "view",
      "type": "function"
    },
    {
      "inputs": [
        {
          "internalType": "address",
          "name": "from",
          "type": "address"
        },
        {
          "internalType": "address",
          "name": "to",
          "type": "address"
        },
        {
          "internalType": "uint256",
          "name": "tokenId",
          "type": "uint256"
        }
      ],
      "name": "safeTransferFrom",
      "outputs": [],
      "stateMutability": "nonpayable",
      "type": "function"
    },
    {
      "inputs": [
        {
          "internalType": "address",
          "name": "from",
          "type": "address"
        },
        {
          "internalType": "address",
          "name": "to",
          "type": "address"
        },
        {
          "internalType": "uint256",
          "name": "tokenId",
          "type": "uint256"
        },
        {
          "internalType": "bytes",
          "name": "data",
          "type": "bytes"
        }
      ],
      "name": "safeTransferFrom",
      "outputs": [],
      "stateMutability": "nonpayable",
      "type": "function"
    },
    {
      "inputs": [
        {
          "internalType": "address",
          "name": "operator",
          "type": "address"
        },
        {
          "internalType": "bool",
          "name": "approved",
          "type": "bool"
        }
      ],
      "name": "setApprovalForAll",
      "outputs": [],
      "stateMutability": "nonpayable",
      "type": "function"
    },
    {
      "inputs": [
        {
          "internalType": "uint256",
          "name": "_id",
          "type": "uint256"
        }
      ],
      "name": "setProfile",
      "outputs": [],
      "stateMutability": "nonpayable",
      "type": "function"
    },
    {
      "inputs": [
        {
          "internalType": "bytes4",
          "name": "interfaceId",
          "type": "bytes4"
        }
      ],
      "name": "supportsInterface",
      "outputs": [
        {
          "internalType": "bool",
          "name": "",
          "type": "bool"
        }
      ],
      "stateMutability": "view",
      "type": "function"
    },
    {
      "inputs": [],
      "name": "symbol",
      "outputs": [
        {
          "internalType": "string",
          "name": "",
          "type": "string"
        }
      ],
      "stateMutability": "view",
      "type": "function"
    },
    {
      "inputs": [
        {
          "internalType": "uint256",
          "name": "_id",
          "type": "uint256"
        }
      ],
      "name": "tipPostOwner",
      "outputs": [],
      "stateMutability": "payable",
      "type": "function"
    },
    {
      "inputs": [],
      "name": "tokenCount",
      "outputs": [
        {
          "internalType": "uint256",
          "name": "",
          "type": "uint256"
        }
      ],
      "stateMutability": "view",
      "type": "function"
    },
    {
      "inputs": [
        {
          "internalType": "uint256",
          "name": "tokenId",
          "type": "uint256"
        }
      ],
      "name": "tokenURI",
      "outputs": [
        {
          "internalType": "string",
          "name": "",
          "type": "string"
        }
      ],
      "stateMutability": "view",
      "type": "function"
    },
    {
      "inputs": [
        {
          "internalType": "address",
          "name": "from",
          "type": "address"
        },
        {
          "internalType": "address",
          "name": "to",
          "type": "address"
        },
        {
          "internalType": "uint256",
          "name": "tokenId",
          "type": "uint256"
        }
      ],
      "name": "transferFrom",
      "outputs": [],
      "stateMutability": "nonpayable",
      "type": "function"
    },
    {
      "inputs": [
        {
          "internalType": "string",
          "name": "_postHash",
          "type": "string"
        }
      ],
      "name": "uploadPost",
      "outputs": [],
      "stateMutability": "nonpayable",
      "type": "function"
    }
  ],
  "bytecode": "0x60806040523480156200001157600080fd5b506040518060400160405280600f81526020017f446563656e7472617477697474657200000000000000000000000000000000008152506040518060400160405280600481526020017f4441505000000000000000000000000000000000000000000000000000000000815250816000908051906020019062000096929190620000b8565b508060019080519060200190620000af929190620000b8565b505050620001cd565b828054620000c69062000168565b90600052602060002090601f016020900481019282620000ea576000855562000136565b82601f106200010557805160ff191683800117855562000136565b8280016001018555821562000136579182015b828111156200013557825182559160200191906001019062000118565b5b50905062000145919062000149565b5090565b5b80821115620001645760008160009055506001016200014a565b5090565b600060028204905060018216806200018157607f821691505b602082108114156200019857620001976200019e565b5b50919050565b7f4e487b7100000000000000000000000000000000000000000000000000000000600052602260045260246000fd5b613e4380620001dd6000396000f3fe6080604052600436106101405760003560e01c806370a08231116100b6578063bbe156271161006f578063bbe1562714610471578063bdd05adb146104ae578063c87b56dd146104d7578063d6313c0614610514578063d85d3d2714610530578063e985e9c51461056d57610140565b806370a082311461036357806385d3cb37146103a057806395d89b41146103c95780639f181b5e146103f4578063a22cb4651461041f578063b88d4fde1461044857610140565b80630b1e7f83116101085780630b1e7f831461023e57806317906c2e1461027e57806323b872dd146102a957806330561100146102d257806342842e0e146102fd5780636352211e1461032657610140565b806301ffc9a714610145578063047b07bf1461018257806306fdde03146101ad578063081812fc146101d8578063095ea7b314610215575b600080fd5b34801561015157600080fd5b5061016c60048036038101906101679190612bec565b6105aa565b6040516101799190613271565b60405180910390f35b34801561018e57600080fd5b5061019761068c565b6040516101a4919061324f565b60405180910390f35b3480156101b957600080fd5b506101c26107dc565b6040516101cf919061328c565b60405180910390f35b3480156101e457600080fd5b506101ff60048036038101906101fa9190612c7f565b61086e565b60405161020c91906131c6565b60405180910390f35b34801561022157600080fd5b5061023c60048036038101906102379190612bb0565b6108b4565b005b34801561024a57600080fd5b5061026560048036038101906102609190612c7f565b6109cc565b6040516102759493929190613535565b60405180910390f35b34801561028a57600080fd5b50610293610aa4565b6040516102a091906134ce565b60405180910390f35b3480156102b557600080fd5b506102d060048036038101906102cb9190612aaa565b610aaa565b005b3480156102de57600080fd5b506102e7610b0a565b6040516102f4919061322d565b60405180910390f35b34801561030957600080fd5b50610324600480360381019061031f9190612aaa565b610d17565b005b34801561033257600080fd5b5061034d60048036038101906103489190612c7f565b610d37565b60405161035a91906131c6565b60405180910390f35b34801561036f57600080fd5b5061038a60048036038101906103859190612a45565b610dbe565b60405161039791906134ce565b60405180910390f35b3480156103ac57600080fd5b506103c760048036038101906103c29190612c7f565b610e76565b005b3480156103d557600080fd5b506103de610f33565b6040516103eb919061328c565b60405180910390f35b34801561040057600080fd5b50610409610fc5565b60405161041691906134ce565b60405180910390f35b34801561042b57600080fd5b5061044660048036038101906104419190612b74565b610fcb565b005b34801561045457600080fd5b5061046f600480360381019061046a9190612af9565b610fe1565b005b34801561047d57600080fd5b5061049860048036038101906104939190612a45565b611043565b6040516104a591906134ce565b60405180910390f35b3480156104ba57600080fd5b506104d560048036038101906104d09190612c3e565b61105b565b005b3480156104e357600080fd5b506104fe60048036038101906104f99190612c7f565b61120f565b60405161050b919061328c565b60405180910390f35b61052e60048036038101906105299190612c7f565b611322565b005b34801561053c57600080fd5b5061055760048036038101906105529190612c3e565b611644565b60405161056491906134ce565b60405180910390f35b34801561057957600080fd5b50610594600480360381019061058f9190612a6e565b611680565b6040516105a19190613271565b60405180910390f35b60007f80ac58cd000000000000000000000000000000000000000000000000000000007bffffffffffffffffffffffffffffffffffffffffffffffffffffffff1916827bffffffffffffffffffffffffffffffffffffffffffffffffffffffff1916148061067557507f5b5e139f000000000000000000000000000000000000000000000000000000007bffffffffffffffffffffffffffffffffffffffffffffffffffffffff1916827bffffffffffffffffffffffffffffffffffffffffffffffffffffffff1916145b80610685575061068482611714565b5b9050919050565b606061069733610dbe565b67ffffffffffffffff8111156106d6577f4e487b7100000000000000000000000000000000000000000000000000000000600052604160045260246000fd5b6040519080825280602002602001820160405280156107045781602001602082028036833780820191505090505b509050600080600754905060005b818110156107d6573373ffffffffffffffffffffffffffffffffffffffff1661074660018361074191906136ce565b610d37565b73ffffffffffffffffffffffffffffffffffffffff1614156107c35760018161076f91906136ce565b8484815181106107a8577f4e487b7100000000000000000000000000000000000000000000000000000000600052603260045260246000fd5b60200260200101818152505082806107bf90613895565b9350505b80806107ce90613895565b915050610712565b50505090565b6060600080546107eb90613832565b80601f016020809104026020016040519081016040528092919081815260200182805461081790613832565b80156108645780601f1061083957610100808354040283529160200191610864565b820191906000526020600020905b81548152906001019060200180831161084757829003601f168201915b5050505050905090565b60006108798261177e565b6004600083815260200190815260200160002060009054906101000a900473ffffffffffffffffffffffffffffffffffffffff169050919050565b60006108bf82610d37565b90508073ffffffffffffffffffffffffffffffffffffffff168373ffffffffffffffffffffffffffffffffffffffff161415610930576040517f08c379a00000000000000000000000000000000000000000000000000000000081526004016109279061342e565b60405180910390fd5b8073ffffffffffffffffffffffffffffffffffffffff1661094f6117c9565b73ffffffffffffffffffffffffffffffffffffffff16148061097e575061097d816109786117c9565b611680565b5b6109bd576040517f08c379a00000000000000000000000000000000000000000000000000000000081526004016109b49061348e565b60405180910390fd5b6109c783836117d1565b505050565b60096020528060005260406000206000915090508060000154908060010180546109f590613832565b80601f0160208091040260200160405190810160405280929190818152602001828054610a2190613832565b8015610a6e5780601f10610a4357610100808354040283529160200191610a6e565b820191906000526020600020905b815481529060010190602001808311610a5157829003601f168201915b5050505050908060020154908060030160009054906101000a900473ffffffffffffffffffffffffffffffffffffffff16905084565b60085481565b610abb610ab56117c9565b8261188a565b610afa576040517f08c379a0000000000000000000000000000000000000000000000000000000008152600401610af1906132ae565b60405180910390fd5b610b0583838361191f565b505050565b606060085467ffffffffffffffff811115610b4e577f4e487b7100000000000000000000000000000000000000000000000000000000600052604160045260246000fd5b604051908082528060200260200182016040528015610b8757816020015b610b7461282b565b815260200190600190039081610b6c5790505b50905060005b8151811015610d135760096000600183610ba791906136ce565b815260200190815260200160002060405180608001604052908160008201548152602001600182018054610bda90613832565b80601f0160208091040260200160405190810160405280929190818152602001828054610c0690613832565b8015610c535780601f10610c2857610100808354040283529160200191610c53565b820191906000526020600020905b815481529060010190602001808311610c3657829003601f168201915b50505050508152602001600282015481526020016003820160009054906101000a900473ffffffffffffffffffffffffffffffffffffffff1673ffffffffffffffffffffffffffffffffffffffff1673ffffffffffffffffffffffffffffffffffffffff1681525050828281518110610cf5577f4e487b7100000000000000000000000000000000000000000000000000000000600052603260045260246000fd5b60200260200101819052508080610d0b90613895565b915050610b8d565b5090565b610d3283838360405180602001604052806000815250610fe1565b505050565b600080610d4383611c19565b9050600073ffffffffffffffffffffffffffffffffffffffff168173ffffffffffffffffffffffffffffffffffffffff161415610db5576040517f08c379a0000000000000000000000000000000000000000000000000000000008152600401610dac9061340e565b60405180910390fd5b80915050919050565b60008073ffffffffffffffffffffffffffffffffffffffff168273ffffffffffffffffffffffffffffffffffffffff161415610e2f576040517f08c379a0000000000000000000000000000000000000000000000000000000008152600401610e269061336e565b60405180910390fd5b600360008373ffffffffffffffffffffffffffffffffffffffff1673ffffffffffffffffffffffffffffffffffffffff168152602001908152602001600020549050919050565b3373ffffffffffffffffffffffffffffffffffffffff16610e9682610d37565b73ffffffffffffffffffffffffffffffffffffffff1614610eec576040517f08c379a0000000000000000000000000000000000000000000000000000000008152600401610ee39061344e565b60405180910390fd5b80600a60003373ffffffffffffffffffffffffffffffffffffffff1673ffffffffffffffffffffffffffffffffffffffff1681526020019081526020016000208190555050565b606060018054610f4290613832565b80601f0160208091040260200160405190810160405280929190818152602001828054610f6e90613832565b8015610fbb5780601f10610f9057610100808354040283529160200191610fbb565b820191906000526020600020905b815481529060010190602001808311610f9e57829003601f168201915b5050505050905090565b60075481565b610fdd610fd66117c9565b8383611c56565b5050565b610ff2610fec6117c9565b8361188a565b611031576040517f08c379a0000000000000000000000000000000000000000000000000000000008152600401611028906132ae565b60405180910390fd5b61103d84848484611dc3565b50505050565b600a6020528060005260406000206000915090505481565b600061106633610dbe565b116110a6576040517f08c379a000000000000000000000000000000000000000000000000000000000815260040161109d906134ae565b60405180910390fd5b60008151116110ea576040517f08c379a00000000000000000000000000000000000000000000000000000000081526004016110e1906133ee565b60405180910390fd5b600860008154809291906110fd90613895565b919050555060405180608001604052806008548152602001828152602001600081526020013373ffffffffffffffffffffffffffffffffffffffff16815250600960006008548152602001908152602001600020600082015181600001556020820151816001019080519060200190611177929190612869565b506040820151816002015560608201518160030160006101000a81548173ffffffffffffffffffffffffffffffffffffffff021916908373ffffffffffffffffffffffffffffffffffffffff1602179055509050507fc66336337a24e513f909b3b25119854dba8385d51307dbc7d31d1b2805e19c7e6008548260003360405161120494939291906134e9565b60405180910390a150565b606061121a8261177e565b600060066000848152602001908152602001600020805461123a90613832565b80601f016020809104026020016040519081016040528092919081815260200182805461126690613832565b80156112b35780601f10611288576101008083540402835291602001916112b3565b820191906000526020600020905b81548152906001019060200180831161129657829003601f168201915b5050505050905060006112c4611e1f565b90506000815114156112da57819250505061131d565b60008251111561130f5780826040516020016112f79291906131a2565b6040516020818303038152906040529250505061131d565b61131884611e36565b925050505b919050565b60008111801561133457506008548111155b611373576040517f08c379a000000000000000000000000000000000000000000000000000000000815260040161136a906133ae565b60405180910390fd5b600060096000838152602001908152602001600020604051806080016040529081600082015481526020016001820180546113ad90613832565b80601f01602080910402602001604051908101604052809291908181526020018280546113d990613832565b80156114265780601f106113fb57610100808354040283529160200191611426565b820191906000526020600020905b81548152906001019060200180831161140957829003601f168201915b50505050508152602001600282015481526020016003820160009054906101000a900473ffffffffffffffffffffffffffffffffffffffff1673ffffffffffffffffffffffffffffffffffffffff1673ffffffffffffffffffffffffffffffffffffffff168152505090503373ffffffffffffffffffffffffffffffffffffffff16816060015173ffffffffffffffffffffffffffffffffffffffff161415611504576040517f08c379a00000000000000000000000000000000000000000000000000000000081526004016114fb9061346e565b60405180910390fd5b806060015173ffffffffffffffffffffffffffffffffffffffff166108fc349081150290604051600060405180830381858888f1935050505015801561154e573d6000803e3d6000fd5b50348160400181815161156191906136ce565b9150818152505080600960008481526020019081526020016000206000820151816000015560208201518160010190805190602001906115a2929190612869565b506040820151816002015560608201518160030160006101000a81548173ffffffffffffffffffffffffffffffffffffffff021916908373ffffffffffffffffffffffffffffffffffffffff1602179055509050507f20988fe475351e75813672abada1dddb7ac67cbbeb81e61e1160b8329d8cdf1c828260200151836040015184606001516040516116389493929190613535565b60405180910390a15050565b60006007600081548092919061165990613895565b919050555061166a33600754611e9e565b61167660075483611ebc565b6007549050919050565b6000600560008473ffffffffffffffffffffffffffffffffffffffff1673ffffffffffffffffffffffffffffffffffffffff16815260200190815260200160002060008373ffffffffffffffffffffffffffffffffffffffff1673ffffffffffffffffffffffffffffffffffffffff16815260200190815260200160002060009054906101000a900460ff16905092915050565b60007f01ffc9a7000000000000000000000000000000000000000000000000000000007bffffffffffffffffffffffffffffffffffffffffffffffffffffffff1916827bffffffffffffffffffffffffffffffffffffffffffffffffffffffff1916149050919050565b61178781611f30565b6117c6576040517f08c379a00000000000000000000000000000000000000000000000000000000081526004016117bd9061340e565b60405180910390fd5b50565b600033905090565b816004600083815260200190815260200160002060006101000a81548173ffffffffffffffffffffffffffffffffffffffff021916908373ffffffffffffffffffffffffffffffffffffffff160217905550808273ffffffffffffffffffffffffffffffffffffffff1661184483610d37565b73ffffffffffffffffffffffffffffffffffffffff167f8c5be1e5ebec7d5bd14f71427d1e84f3dd0314c0f7b2291e5b200ac8c7c3b92560405160405180910390a45050565b60008061189683610d37565b90508073ffffffffffffffffffffffffffffffffffffffff168473ffffffffffffffffffffffffffffffffffffffff1614806118d857506118d78185611680565b5b8061191657508373ffffffffffffffffffffffffffffffffffffffff166118fe8461086e565b73ffffffffffffffffffffffffffffffffffffffff16145b91505092915050565b8273ffffffffffffffffffffffffffffffffffffffff1661193f82610d37565b73ffffffffffffffffffffffffffffffffffffffff1614611995576040517f08c379a000000000000000000000000000000000000000000000000000000000815260040161198c906132ee565b60405180910390fd5b600073ffffffffffffffffffffffffffffffffffffffff168273ffffffffffffffffffffffffffffffffffffffff161415611a05576040517f08c379a00000000000000000000000000000000000000000000000000000000081526004016119fc9061332e565b60405180910390fd5b611a128383836001611f71565b8273ffffffffffffffffffffffffffffffffffffffff16611a3282610d37565b73ffffffffffffffffffffffffffffffffffffffff1614611a88576040517f08c379a0000000000000000000000000000000000000000000000000000000008152600401611a7f906132ee565b60405180910390fd5b6004600082815260200190815260200160002060006101000a81549073ffffffffffffffffffffffffffffffffffffffff02191690556001600360008573ffffffffffffffffffffffffffffffffffffffff1673ffffffffffffffffffffffffffffffffffffffff168152602001908152602001600020600082825403925050819055506001600360008473ffffffffffffffffffffffffffffffffffffffff1673ffffffffffffffffffffffffffffffffffffffff16815260200190815260200160002060008282540192505081905550816002600083815260200190815260200160002060006101000a81548173ffffffffffffffffffffffffffffffffffffffff021916908373ffffffffffffffffffffffffffffffffffffffff160217905550808273ffffffffffffffffffffffffffffffffffffffff168473ffffffffffffffffffffffffffffffffffffffff167fddf252ad1be2c89b69c2b068fc378daa952ba7f163c4a11628f55a4df523b3ef60405160405180910390a4611c148383836001612097565b505050565b60006002600083815260200190815260200160002060009054906101000a900473ffffffffffffffffffffffffffffffffffffffff169050919050565b8173ffffffffffffffffffffffffffffffffffffffff168373ffffffffffffffffffffffffffffffffffffffff161415611cc5576040517f08c379a0000000000000000000000000000000000000000000000000000000008152600401611cbc9061334e565b60405180910390fd5b80600560008573ffffffffffffffffffffffffffffffffffffffff1673ffffffffffffffffffffffffffffffffffffffff16815260200190815260200160002060008473ffffffffffffffffffffffffffffffffffffffff1673ffffffffffffffffffffffffffffffffffffffff16815260200190815260200160002060006101000a81548160ff0219169083151502179055508173ffffffffffffffffffffffffffffffffffffffff168373ffffffffffffffffffffffffffffffffffffffff167f17307eab39ab6107e8899845ad3d59bd9653f200f220920489ca2b5937696c3183604051611db69190613271565b60405180910390a3505050565b611dce84848461191f565b611dda8484848461209d565b611e19576040517f08c379a0000000000000000000000000000000000000000000000000000000008152600401611e10906132ce565b60405180910390fd5b50505050565b606060405180602001604052806000815250905090565b6060611e418261177e565b6000611e4b611e1f565b90506000815111611e6b5760405180602001604052806000815250611e96565b80611e7584612234565b604051602001611e869291906131a2565b6040516020818303038152906040525b915050919050565b611eb8828260405180602001604052806000815250612358565b5050565b611ec582611f30565b611f04576040517f08c379a0000000000000000000000000000000000000000000000000000000008152600401611efb9061338e565b60405180910390fd5b80600660008481526020019081526020016000209080519060200190611f2b929190612869565b505050565b60008073ffffffffffffffffffffffffffffffffffffffff16611f5283611c19565b73ffffffffffffffffffffffffffffffffffffffff1614159050919050565b600181111561209157600073ffffffffffffffffffffffffffffffffffffffff168473ffffffffffffffffffffffffffffffffffffffff16146120055780600360008673ffffffffffffffffffffffffffffffffffffffff1673ffffffffffffffffffffffffffffffffffffffff1681526020019081526020016000206000828254611ffd9190613724565b925050819055505b600073ffffffffffffffffffffffffffffffffffffffff168373ffffffffffffffffffffffffffffffffffffffff16146120905780600360008573ffffffffffffffffffffffffffffffffffffffff1673ffffffffffffffffffffffffffffffffffffffff168152602001908152602001600020600082825461208891906136ce565b925050819055505b5b50505050565b50505050565b60006120be8473ffffffffffffffffffffffffffffffffffffffff166123b3565b15612227578373ffffffffffffffffffffffffffffffffffffffff1663150b7a026120e76117c9565b8786866040518563ffffffff1660e01b815260040161210994939291906131e1565b602060405180830381600087803b15801561212357600080fd5b505af192505050801561215457506040513d601f19601f820116820180604052508101906121519190612c15565b60015b6121d7573d8060008114612184576040519150601f19603f3d011682016040523d82523d6000602084013e612189565b606091505b506000815114156121cf576040517f08c379a00000000000000000000000000000000000000000000000000000000081526004016121c6906132ce565b60405180910390fd5b805181602001fd5b63150b7a0260e01b7bffffffffffffffffffffffffffffffffffffffffffffffffffffffff1916817bffffffffffffffffffffffffffffffffffffffffffffffffffffffff19161491505061222c565b600190505b949350505050565b606060006001612243846123d6565b01905060008167ffffffffffffffff811115612288577f4e487b7100000000000000000000000000000000000000000000000000000000600052604160045260246000fd5b6040519080825280601f01601f1916602001820160405280156122ba5781602001600182028036833780820191505090505b509050600082602001820190505b60011561234d578080600190039150507f3031323334353637383961626364656600000000000000000000000000000000600a86061a8153600a8581612337577f4e487b7100000000000000000000000000000000000000000000000000000000600052601260045260246000fd5b04945060008514156123485761234d565b6122c8565b819350505050919050565b612362838361260d565b61236f600084848461209d565b6123ae576040517f08c379a00000000000000000000000000000000000000000000000000000000081526004016123a5906132ce565b60405180910390fd5b505050565b6000808273ffffffffffffffffffffffffffffffffffffffff163b119050919050565b600080600090507a184f03e93ff9f4daa797ed6e38ed64bf6a1f010000000000000000831061245a577a184f03e93ff9f4daa797ed6e38ed64bf6a1f0100000000000000008381612450577f4e487b7100000000000000000000000000000000000000000000000000000000600052601260045260246000fd5b0492506040810190505b6d04ee2d6d415b85acef810000000083106124bd576d04ee2d6d415b85acef810000000083816124b3577f4e487b7100000000000000000000000000000000000000000000000000000000600052601260045260246000fd5b0492506020810190505b662386f26fc10000831061251257662386f26fc100008381612508577f4e487b7100000000000000000000000000000000000000000000000000000000600052601260045260246000fd5b0492506010810190505b6305f5e1008310612561576305f5e1008381612557577f4e487b7100000000000000000000000000000000000000000000000000000000600052601260045260246000fd5b0492506008810190505b61271083106125ac5761271083816125a2577f4e487b7100000000000000000000000000000000000000000000000000000000600052601260045260246000fd5b0492506004810190505b606483106125f557606483816125eb577f4e487b7100000000000000000000000000000000000000000000000000000000600052601260045260246000fd5b0492506002810190505b600a8310612604576001810190505b80915050919050565b600073ffffffffffffffffffffffffffffffffffffffff168273ffffffffffffffffffffffffffffffffffffffff16141561267d576040517f08c379a0000000000000000000000000000000000000000000000000000000008152600401612674906133ce565b60405180910390fd5b61268681611f30565b156126c6576040517f08c379a00000000000000000000000000000000000000000000000000000000081526004016126bd9061330e565b60405180910390fd5b6126d4600083836001611f71565b6126dd81611f30565b1561271d576040517f08c379a00000000000000000000000000000000000000000000000000000000081526004016127149061330e565b60405180910390fd5b6001600360008473ffffffffffffffffffffffffffffffffffffffff1673ffffffffffffffffffffffffffffffffffffffff16815260200190815260200160002060008282540192505081905550816002600083815260200190815260200160002060006101000a81548173ffffffffffffffffffffffffffffffffffffffff021916908373ffffffffffffffffffffffffffffffffffffffff160217905550808273ffffffffffffffffffffffffffffffffffffffff16600073ffffffffffffffffffffffffffffffffffffffff167fddf252ad1be2c89b69c2b068fc378daa952ba7f163c4a11628f55a4df523b3ef60405160405180910390a4612827600083836001612097565b5050565b6040518060800160405280600081526020016060815260200160008152602001600073ffffffffffffffffffffffffffffffffffffffff1681525090565b82805461287590613832565b90600052602060002090601f01602090048101928261289757600085556128de565b82601f106128b057805160ff19168380011785556128de565b828001600101855582156128de579182015b828111156128dd5782518255916020019190600101906128c2565b5b5090506128eb91906128ef565b5090565b5b808211156129085760008160009055506001016128f0565b5090565b600061291f61291a846135a6565b613581565b90508281526020810184848401111561293757600080fd5b6129428482856137f0565b509392505050565b600061295d612958846135d7565b613581565b90508281526020810184848401111561297557600080fd5b6129808482856137f0565b509392505050565b60008135905061299781613db1565b92915050565b6000813590506129ac81613dc8565b92915050565b6000813590506129c181613ddf565b92915050565b6000815190506129d681613ddf565b92915050565b600082601f8301126129ed57600080fd5b81356129fd84826020860161290c565b91505092915050565b600082601f830112612a1757600080fd5b8135612a2784826020860161294a565b91505092915050565b600081359050612a3f81613df6565b92915050565b600060208284031215612a5757600080fd5b6000612a6584828501612988565b91505092915050565b60008060408385031215612a8157600080fd5b6000612a8f85828601612988565b9250506020612aa085828601612988565b9150509250929050565b600080600060608486031215612abf57600080fd5b6000612acd86828701612988565b9350506020612ade86828701612988565b9250506040612aef86828701612a30565b9150509250925092565b60008060008060808587031215612b0f57600080fd5b6000612b1d87828801612988565b9450506020612b2e87828801612988565b9350506040612b3f87828801612a30565b925050606085013567ffffffffffffffff811115612b5c57600080fd5b612b68878288016129dc565b91505092959194509250565b60008060408385031215612b8757600080fd5b6000612b9585828601612988565b9250506020612ba68582860161299d565b9150509250929050565b60008060408385031215612bc357600080fd5b6000612bd185828601612988565b9250506020612be285828601612a30565b9150509250929050565b600060208284031215612bfe57600080fd5b6000612c0c848285016129b2565b91505092915050565b600060208284031215612c2757600080fd5b6000612c35848285016129c7565b91505092915050565b600060208284031215612c5057600080fd5b600082013567ffffffffffffffff811115612c6a57600080fd5b612c7684828501612a06565b91505092915050565b600060208284031215612c9157600080fd5b6000612c9f84828501612a30565b91505092915050565b6000612cb48383613121565b905092915050565b6000612cc88383613184565b60208301905092915050565b612cdd8161376a565b82525050565b612cec8161376a565b82525050565b612cfb81613758565b82525050565b6000612d0c82613628565b612d16818561366e565b935083602082028501612d2885613608565b8060005b85811015612d645784840389528151612d458582612ca8565b9450612d5083613654565b925060208a01995050600181019050612d2c565b50829750879550505050505092915050565b6000612d8182613633565b612d8b818561367f565b9350612d9683613618565b8060005b83811015612dc7578151612dae8882612cbc565b9750612db983613661565b925050600181019050612d9a565b5085935050505092915050565b612ddd8161377c565b82525050565b6000612dee8261363e565b612df88185613690565b9350612e088185602086016137ff565b612e118161396b565b840191505092915050565b612e25816137de565b82525050565b6000612e3682613649565b612e4081856136a1565b9350612e508185602086016137ff565b612e598161396b565b840191505092915050565b6000612e6f82613649565b612e7981856136b2565b9350612e898185602086016137ff565b612e928161396b565b840191505092915050565b6000612ea882613649565b612eb281856136c3565b9350612ec28185602086016137ff565b80840191505092915050565b6000612edb602d836136b2565b9150612ee68261397c565b604082019050919050565b6000612efe6032836136b2565b9150612f09826139cb565b604082019050919050565b6000612f216025836136b2565b9150612f2c82613a1a565b604082019050919050565b6000612f44601c836136b2565b9150612f4f82613a69565b602082019050919050565b6000612f676024836136b2565b9150612f7282613a92565b604082019050919050565b6000612f8a6019836136b2565b9150612f9582613ae1565b602082019050919050565b6000612fad6029836136b2565b9150612fb882613b0a565b604082019050919050565b6000612fd0602e836136b2565b9150612fdb82613b59565b604082019050919050565b6000612ff3600f836136b2565b9150612ffe82613ba8565b602082019050919050565b60006130166020836136b2565b915061302182613bd1565b602082019050919050565b60006130396019836136b2565b915061304482613bfa565b602082019050919050565b600061305c6018836136b2565b915061306782613c23565b602082019050919050565b600061307f6021836136b2565b915061308a82613c4c565b604082019050919050565b60006130a26033836136b2565b91506130ad82613c9b565b604082019050919050565b60006130c56018836136b2565b91506130d082613cea565b602082019050919050565b60006130e8603d836136b2565b91506130f382613d13565b604082019050919050565b600061310b6026836136b2565b915061311682613d62565b604082019050919050565b60006080830160008301516131396000860182613184565b50602083015184820360208601526131518282612e2b565b91505060408301516131666040860182613184565b5060608301516131796060860182612cd4565b508091505092915050565b61318d816137d4565b82525050565b61319c816137d4565b82525050565b60006131ae8285612e9d565b91506131ba8284612e9d565b91508190509392505050565b60006020820190506131db6000830184612cf2565b92915050565b60006080820190506131f66000830187612cf2565b6132036020830186612cf2565b6132106040830185613193565b81810360608301526132228184612de3565b905095945050505050565b600060208201905081810360008301526132478184612d01565b905092915050565b600060208201905081810360008301526132698184612d76565b905092915050565b60006020820190506132866000830184612dd4565b92915050565b600060208201905081810360008301526132a68184612e64565b905092915050565b600060208201905081810360008301526132c781612ece565b9050919050565b600060208201905081810360008301526132e781612ef1565b9050919050565b6000602082019050818103600083015261330781612f14565b9050919050565b6000602082019050818103600083015261332781612f37565b9050919050565b6000602082019050818103600083015261334781612f5a565b9050919050565b6000602082019050818103600083015261336781612f7d565b9050919050565b6000602082019050818103600083015261338781612fa0565b9050919050565b600060208201905081810360008301526133a781612fc3565b9050919050565b600060208201905081810360008301526133c781612fe6565b9050919050565b600060208201905081810360008301526133e781613009565b9050919050565b600060208201905081810360008301526134078161302c565b9050919050565b600060208201905081810360008301526134278161304f565b9050919050565b6000602082019050818103600083015261344781613072565b9050919050565b6000602082019050818103600083015261346781613095565b9050919050565b60006020820190508181036000830152613487816130b8565b9050919050565b600060208201905081810360008301526134a7816130db565b9050919050565b600060208201905081810360008301526134c7816130fe565b9050919050565b60006020820190506134e36000830184613193565b92915050565b60006080820190506134fe6000830187613193565b81810360208301526135108186612e64565b905061351f6040830185612e1c565b61352c6060830184612ce3565b95945050505050565b600060808201905061354a6000830187613193565b818103602083015261355c8186612e64565b905061356b6040830185613193565b6135786060830184612ce3565b95945050505050565b600061358b61359c565b90506135978282613864565b919050565b6000604051905090565b600067ffffffffffffffff8211156135c1576135c061393c565b5b6135ca8261396b565b9050602081019050919050565b600067ffffffffffffffff8211156135f2576135f161393c565b5b6135fb8261396b565b9050602081019050919050565b6000819050602082019050919050565b6000819050602082019050919050565b600081519050919050565b600081519050919050565b600081519050919050565b600081519050919050565b6000602082019050919050565b6000602082019050919050565b600082825260208201905092915050565b600082825260208201905092915050565b600082825260208201905092915050565b600082825260208201905092915050565b600082825260208201905092915050565b600081905092915050565b60006136d9826137d4565b91506136e4836137d4565b9250827fffffffffffffffffffffffffffffffffffffffffffffffffffffffffffffffff03821115613719576137186138de565b5b828201905092915050565b600061372f826137d4565b915061373a836137d4565b92508282101561374d5761374c6138de565b5b828203905092915050565b6000613763826137b4565b9050919050565b6000613775826137b4565b9050919050565b60008115159050919050565b60007fffffffff0000000000000000000000000000000000000000000000000000000082169050919050565b600073ffffffffffffffffffffffffffffffffffffffff82169050919050565b6000819050919050565b60006137e9826137d4565b9050919050565b82818337600083830152505050565b60005b8381101561381d578082015181840152602081019050613802565b8381111561382c576000848401525b50505050565b6000600282049050600182168061384a57607f821691505b6020821081141561385e5761385d61390d565b5b50919050565b61386d8261396b565b810181811067ffffffffffffffff8211171561388c5761388b61393c565b5b80604052505050565b60006138a0826137d4565b91507fffffffffffffffffffffffffffffffffffffffffffffffffffffffffffffffff8214156138d3576138d26138de565b5b600182019050919050565b7f4e487b7100000000000000000000000000000000000000000000000000000000600052601160045260246000fd5b7f4e487b7100000000000000000000000000000000000000000000000000000000600052602260045260246000fd5b7f4e487b7100000000000000000000000000000000000000000000000000000000600052604160045260246000fd5b6000601f19601f8301169050919050565b7f4552433732313a2063616c6c6572206973206e6f7420746f6b656e206f776e6560008201527f72206f7220617070726f76656400000000000000000000000000000000000000602082015250565b7f4552433732313a207472616e7366657220746f206e6f6e20455243373231526560008201527f63656976657220696d706c656d656e7465720000000000000000000000000000602082015250565b7f4552433732313a207472616e736665722066726f6d20696e636f72726563742060008201527f6f776e6572000000000000000000000000000000000000000000000000000000602082015250565b7f4552433732313a20746f6b656e20616c7265616479206d696e74656400000000600082015250565b7f4552433732313a207472616e7366657220746f20746865207a65726f2061646460008201527f7265737300000000000000000000000000000000000000000000000000000000602082015250565b7f4552433732313a20617070726f766520746f2063616c6c657200000000000000600082015250565b7f4552433732313a2061646472657373207a65726f206973206e6f74206120766160008201527f6c6964206f776e65720000000000000000000000000000000000000000000000602082015250565b7f45524337323155524953746f726167653a2055524920736574206f66206e6f6e60008201527f6578697374656e7420746f6b656e000000000000000000000000000000000000602082015250565b7f496e76616c696420706f73742069640000000000000000000000000000000000600082015250565b7f4552433732313a206d696e7420746f20746865207a65726f2061646472657373600082015250565b7f43616e6e6f74207061737320616e20656d707479206861736800000000000000600082015250565b7f4552433732313a20696e76616c696420746f6b656e2049440000000000000000600082015250565b7f4552433732313a20617070726f76616c20746f2063757272656e74206f776e6560008201527f7200000000000000000000000000000000000000000000000000000000000000602082015250565b7f4d757374206f776e20746865206e667420796f752077616e7420746f2073656c60008201527f65637420617320796f75722070726f66696c6500000000000000000000000000602082015250565b7f43616e6e6f742074697020796f7572206f776e20706f73740000000000000000600082015250565b7f4552433732313a20617070726f76652063616c6c6572206973206e6f7420746f60008201527f6b656e206f776e6572206f7220617070726f76656420666f7220616c6c000000602082015250565b7f4d757374206f776e206120646563656e74726174776974746572206e6674207460008201527f6f20706f73740000000000000000000000000000000000000000000000000000602082015250565b613dba81613758565b8114613dc557600080fd5b50565b613dd18161377c565b8114613ddc57600080fd5b50565b613de881613788565b8114613df357600080fd5b50565b613dff816137d4565b8114613e0a57600080fd5b5056fea26469706673582212202db1de4e213d62be4e823658ec9563e058a5e6c30a82e479f0afa56f30fddd3764736f6c63430008040033",
  "linkReferences": {},
  "deployedLinkReferences": {}
}